{
  "_format": "hh-sol-artifact-1",
  "contractName": "Event",
  "sourceName": "contracts/Event.sol",
  "abi": [
    {
      "inputs": [
        {
          "internalType": "address",
          "name": "_ticketingSystem",
          "type": "address"
        },
        {
          "internalType": "address",
          "name": "_venue",
          "type": "address"
        },
        {
          "internalType": "address",
          "name": "_ticketNFT",
          "type": "address"
        },
        {
          "internalType": "string",
          "name": "_eventName",
          "type": "string"
        },
        {
          "internalType": "uint256",
          "name": "_ticketPrice",
          "type": "uint256"
        },
        {
          "internalType": "uint256",
          "name": "_maxTickets",
          "type": "uint256"
        }
      ],
      "stateMutability": "nonpayable",
      "type": "constructor"
    },
    {
      "inputs": [
        {
          "internalType": "uint256",
          "name": "sent",
          "type": "uint256"
        },
        {
          "internalType": "uint256",
          "name": "required",
          "type": "uint256"
        }
      ],
      "name": "InsufficientPayment",
      "type": "error"
    },
    {
      "inputs": [
        {
          "internalType": "enum Event.SalePhase",
          "name": "expected",
          "type": "uint8"
        },
        {
          "internalType": "enum Event.SalePhase",
          "name": "actual",
          "type": "uint8"
        }
      ],
      "name": "InvalidPhase",
      "type": "error"
    },
    {
      "inputs": [
        {
          "internalType": "string",
          "name": "ticketType",
          "type": "string"
        }
      ],
      "name": "InvalidTicketType",
      "type": "error"
    },
    {
      "inputs": [],
      "name": "MaxTicketsReached",
      "type": "error"
    },
    {
      "inputs": [],
      "name": "NotTicketNFT",
      "type": "error"
    },
    {
      "inputs": [],
      "name": "NothingToWithdraw",
      "type": "error"
    },
    {
      "inputs": [],
      "name": "OnlyVenue",
      "type": "error"
    },
    {
      "inputs": [],
      "name": "ZeroAddress",
      "type": "error"
    },
    {
      "anonymous": false,
      "inputs": [
        {
          "indexed": false,
          "internalType": "string",
          "name": "baseURI",
          "type": "string"
        }
      ],
      "name": "BaseURISet",
      "type": "event"
    },
    {
      "anonymous": false,
      "inputs": [
        {
          "indexed": false,
          "internalType": "uint256",
          "name": "eventDate",
          "type": "uint256"
        },
        {
          "indexed": false,
          "internalType": "string",
          "name": "eventLocation",
          "type": "string"
        },
        {
          "indexed": false,
          "internalType": "string",
          "name": "eventDescription",
          "type": "string"
        }
      ],
      "name": "EventDetailsUpdated",
      "type": "event"
    },
    {
      "anonymous": false,
      "inputs": [
        {
          "indexed": true,
          "internalType": "address",
          "name": "venue",
          "type": "address"
        },
        {
          "indexed": false,
          "internalType": "uint256",
          "name": "primaryAmount",
          "type": "uint256"
        },
        {
          "indexed": false,
          "internalType": "uint256",
          "name": "secondaryAmount",
          "type": "uint256"
        }
      ],
      "name": "FundsWithdrawn",
      "type": "event"
    },
    {
      "anonymous": false,
      "inputs": [
        {
          "indexed": false,
          "internalType": "enum Event.SalePhase",
          "name": "newPhase",
          "type": "uint8"
        }
      ],
      "name": "PhaseChanged",
      "type": "event"
    },
    {
      "anonymous": false,
      "inputs": [
        {
          "indexed": false,
          "internalType": "uint256",
          "name": "amount",
          "type": "uint256"
        }
      ],
      "name": "SecondaryFeeReceived",
      "type": "event"
    },
    {
      "anonymous": false,
      "inputs": [
        {
          "indexed": true,
          "internalType": "uint256",
          "name": "tokenId",
          "type": "uint256"
        },
        {
          "indexed": false,
          "internalType": "string",
          "name": "seatInfo",
          "type": "string"
        },
        {
          "indexed": false,
          "internalType": "string",
          "name": "ticketType",
          "type": "string"
        }
      ],
      "name": "TicketMetadataSet",
      "type": "event"
    },
    {
      "anonymous": false,
      "inputs": [
        {
          "indexed": true,
          "internalType": "address",
          "name": "buyer",
          "type": "address"
        },
        {
          "indexed": true,
          "internalType": "uint256",
          "name": "tokenId",
          "type": "uint256"
        }
      ],
      "name": "TicketPurchased",
      "type": "event"
    },
    {
      "anonymous": false,
      "inputs": [
        {
          "indexed": false,
          "internalType": "string",
          "name": "ticketType",
          "type": "string"
        }
      ],
      "name": "TicketTypeAdded",
      "type": "event"
    },
    {
      "inputs": [
        {
          "internalType": "string",
          "name": "ticketType",
          "type": "string"
        }
      ],
      "name": "addTicketType",
      "outputs": [],
      "stateMutability": "nonpayable",
      "type": "function"
    },
    {
      "inputs": [],
      "name": "closeEvent",
      "outputs": [],
      "stateMutability": "nonpayable",
      "type": "function"
    },
    {
      "inputs": [],
      "name": "currentPhase",
      "outputs": [
        {
          "internalType": "enum Event.SalePhase",
          "name": "",
          "type": "uint8"
        }
      ],
      "stateMutability": "view",
      "type": "function"
    },
    {
      "inputs": [],
      "name": "eventDate",
      "outputs": [
        {
          "internalType": "uint256",
          "name": "",
          "type": "uint256"
        }
      ],
      "stateMutability": "view",
      "type": "function"
    },
    {
      "inputs": [],
      "name": "eventDescription",
      "outputs": [
        {
          "internalType": "string",
          "name": "",
          "type": "string"
        }
      ],
      "stateMutability": "view",
      "type": "function"
    },
    {
      "inputs": [],
      "name": "eventLocation",
      "outputs": [
        {
          "internalType": "string",
          "name": "",
          "type": "string"
        }
      ],
      "stateMutability": "view",
      "type": "function"
    },
    {
      "inputs": [],
      "name": "eventName",
      "outputs": [
        {
          "internalType": "string",
          "name": "",
          "type": "string"
        }
      ],
      "stateMutability": "view",
      "type": "function"
    },
    {
      "inputs": [],
      "name": "maxTickets",
      "outputs": [
        {
          "internalType": "uint256",
          "name": "",
          "type": "uint256"
        }
      ],
      "stateMutability": "view",
      "type": "function"
    },
    {
      "inputs": [],
      "name": "primarySalesRevenue",
      "outputs": [
        {
          "internalType": "uint256",
          "name": "",
          "type": "uint256"
        }
      ],
      "stateMutability": "view",
      "type": "function"
    },
    {
      "inputs": [],
      "name": "purchaseTicket",
      "outputs": [],
      "stateMutability": "payable",
      "type": "function"
    },
    {
      "inputs": [],
      "name": "receiveSecondaryFee",
      "outputs": [],
      "stateMutability": "payable",
      "type": "function"
    },
    {
      "inputs": [],
      "name": "remainingTickets",
      "outputs": [
        {
          "internalType": "uint256",
          "name": "",
          "type": "uint256"
        }
      ],
      "stateMutability": "view",
      "type": "function"
    },
    {
      "inputs": [],
      "name": "secondarySalesRevenue",
      "outputs": [
        {
          "internalType": "uint256",
          "name": "",
          "type": "uint256"
        }
      ],
      "stateMutability": "view",
      "type": "function"
    },
    {
      "inputs": [
        {
          "internalType": "string",
          "name": "_baseURI",
          "type": "string"
        }
      ],
      "name": "setBaseURI",
      "outputs": [],
      "stateMutability": "nonpayable",
      "type": "function"
    },
    {
      "inputs": [
        {
          "internalType": "uint256",
          "name": "_eventDate",
          "type": "uint256"
        },
        {
          "internalType": "string",
          "name": "_eventLocation",
          "type": "string"
        },
        {
          "internalType": "string",
          "name": "_eventDescription",
          "type": "string"
        }
      ],
      "name": "setEventDetails",
      "outputs": [],
      "stateMutability": "nonpayable",
      "type": "function"
    },
    {
      "inputs": [
        {
          "internalType": "uint256",
          "name": "tokenId",
          "type": "uint256"
        },
        {
          "internalType": "string",
          "name": "seatInfo",
          "type": "string"
        },
        {
          "internalType": "string",
          "name": "ticketType",
          "type": "string"
        }
      ],
      "name": "setTicketMetadata",
      "outputs": [],
      "stateMutability": "nonpayable",
      "type": "function"
    },
    {
      "inputs": [],
      "name": "ticketNFT",
      "outputs": [
        {
          "internalType": "contract TicketNFT",
          "name": "",
          "type": "address"
        }
      ],
      "stateMutability": "view",
      "type": "function"
    },
    {
      "inputs": [],
      "name": "ticketPrice",
      "outputs": [
        {
          "internalType": "uint256",
          "name": "",
          "type": "uint256"
        }
      ],
      "stateMutability": "view",
      "type": "function"
    },
    {
      "inputs": [],
      "name": "ticketingSystem",
      "outputs": [
        {
          "internalType": "address",
          "name": "",
          "type": "address"
        }
      ],
      "stateMutability": "view",
      "type": "function"
    },
    {
      "inputs": [],
      "name": "ticketsAvailable",
      "outputs": [
        {
          "internalType": "bool",
          "name": "",
          "type": "bool"
        }
      ],
      "stateMutability": "view",
      "type": "function"
    },
    {
      "inputs": [],
      "name": "ticketsSold",
      "outputs": [
        {
          "internalType": "uint256",
          "name": "",
          "type": "uint256"
        }
      ],
      "stateMutability": "view",
      "type": "function"
    },
    {
      "inputs": [],
      "name": "totalRevenue",
      "outputs": [
        {
          "internalType": "uint256",
          "name": "primary",
          "type": "uint256"
        },
        {
          "internalType": "uint256",
          "name": "secondary",
          "type": "uint256"
        },
        {
          "internalType": "uint256",
          "name": "total",
          "type": "uint256"
        }
      ],
      "stateMutability": "view",
      "type": "function"
    },
    {
      "inputs": [
        {
          "internalType": "string",
          "name": "",
          "type": "string"
        }
      ],
      "name": "validTicketTypes",
      "outputs": [
        {
          "internalType": "bool",
          "name": "",
          "type": "bool"
        }
      ],
      "stateMutability": "view",
      "type": "function"
    },
    {
      "inputs": [],
      "name": "venue",
      "outputs": [
        {
          "internalType": "address",
          "name": "",
          "type": "address"
        }
      ],
      "stateMutability": "view",
      "type": "function"
    },
    {
      "inputs": [],
      "name": "withdrawFunds",
      "outputs": [],
      "stateMutability": "nonpayable",
      "type": "function"
    },
    {
      "stateMutability": "payable",
      "type": "receive"
    }
  ],
  "bytecode": "0x61012060405260016004553480156200001757600080fd5b5060405162001d3838038062001d388339810160408190526200003a91620003a0565b60016000556001600160a01b0386166200009b5760405162461bcd60e51b815260206004820152601e60248201527f4576656e743a20496e76616c6964205469636b6574696e6753797374656d000060448201526064015b60405180910390fd5b6001600160a01b038516620000f35760405162461bcd60e51b815260206004820152601460248201527f4576656e743a20496e76616c69642056656e7565000000000000000000000000604482015260640162000092565b6001600160a01b0384166200014b5760405162461bcd60e51b815260206004820152601860248201527f4576656e743a20496e76616c6964205469636b65744e46540000000000000000604482015260640162000092565b600081116200019d5760405162461bcd60e51b815260206004820152601e60248201527f4576656e743a204d6178207469636b657473206d757374206265203e20300000604482015260640162000092565b6001600160a01b0380871660805285811660a052841660c0526001620001c4848262000534565b508160e0818152505080610100818152505060c0516001600160a01b0316636952396d6040518163ffffffff1660e01b8152600401600060405180830381600087803b1580156200021457600080fd5b505af115801562000229573d6000803e3d6000fd5b505050506001600a60405162000256907023b2b732b930b61020b236b4b9b9b4b7b760791b815260110190565b9081526040805160209281900383018120805460ff19169415159490941790935560608301905260278083526000929162001d119083013960c0516040516355f804b360e01b81529192506001600160a01b0316906355f804b390620002c190849060040162000600565b600060405180830381600087803b158015620002dc57600080fd5b505af1158015620002f1573d6000803e3d6000fd5b50506003805460ff1916905550506040517fa6dcc92f45df25789d5639b7a0c97ba1edf3bb1c0b5dd3376fd96a0db87c464290620003329060009062000635565b60405180910390a1505050505050506200065e565b80516001600160a01b03811681146200035f57600080fd5b919050565b634e487b7160e01b600052604160045260246000fd5b60005b83811015620003975781810151838201526020016200037d565b50506000910152565b60008060008060008060c08789031215620003ba57600080fd5b620003c58762000347565b9550620003d56020880162000347565b9450620003e56040880162000347565b60608801519094506001600160401b03808211156200040357600080fd5b818901915089601f8301126200041857600080fd5b8151818111156200042d576200042d62000364565b604051601f8201601f19908116603f0116810190838211818310171562000458576200045862000364565b816040528281528c60208487010111156200047257600080fd5b620004858360208301602088016200037a565b80975050505050506080870151915060a087015190509295509295509295565b600181811c90821680620004ba57607f821691505b602082108103620004db57634e487b7160e01b600052602260045260246000fd5b50919050565b601f8211156200052f57600081815260208120601f850160051c810160208610156200050a5750805b601f850160051c820191505b818110156200052b5782815560010162000516565b5050505b505050565b81516001600160401b0381111562000550576200055062000364565b6200056881620005618454620004a5565b84620004e1565b602080601f831160018114620005a05760008415620005875750858301515b600019600386901b1c1916600185901b1785556200052b565b600085815260208120601f198616915b82811015620005d157888601518255948401946001909101908401620005b0565b5085821015620005f05787850151600019600388901b60f8161c191681555b5050505050600190811b01905550565b6020815260008251806020840152620006218160408501602087016200037a565b601f01601f19169190910160400192915050565b60208101600383106200065857634e487b7160e01b600052602160045260246000fd5b91905290565b60805160a05160c05160e051610100516115db620007366000396000818161042c015281816106ad0152818161074b0152818161098c0152610e090152600081816102620152818161078d015281816107c7015261085201526000818161017a015281816104ac0152818161060401528181610878015281816108f401528181610d610152610fb30152600081816104600152818161057301528181610a1401528181610aa001528181610b7101528181610bd601528181610d0c01528181610e4a0152610f190152600061054601526115db6000f3fe60806040526004361061016a5760003560e01c806355f804b3116100d15780639b8947031161008a578063bf2d9e0b11610064578063bf2d9e0b146104ce578063e13bfbcc146104fe578063eb3135ce14610514578063fd7ff7a71461053457600080fd5b80639b8947031461041a578063a270a7371461044e578063b393391b1461049a57600080fd5b806355f804b3146103855780635d504832146103a55780638043c9c0146103ba5780638f15024f146103cf578063912e1921146103e55780639434571b1461040557600080fd5b806324600fc31161012357806324600fc3146102c757806329954cac146102dc5780632a6ca755146102fc57806335496a961461031e5780633e175b5d146103345780634bfbe5df1461036f57600080fd5b806303dc532614610209578063055ad42e146102205780631209b1f61461025057806313455aff14610292578063182532341461029a57806321846c76146102bf57600080fd5b3661020457336001600160a01b037f000000000000000000000000000000000000000000000000000000000000000016146101b857604051633dc872b560e21b815260040160405180910390fd5b34600660008282546101ca91906110cc565b90915550506040513481527f1dd3e90908ab276286e45e9c644bc83a859d468f96322af1b09608734b071cdd9060200160405180910390a1005b600080fd5b34801561021557600080fd5b5061021e610568565b005b34801561022c57600080fd5b5060035461023a9060ff1681565b604051610247919061111d565b60405180910390f35b34801561025c57600080fd5b506102847f000000000000000000000000000000000000000000000000000000000000000081565b604051908152602001610247565b61021e6105f9565b3480156102a657600080fd5b506102af610689565b6040519015158152602001610247565b61021e6106d6565b3480156102d357600080fd5b5061021e610a09565b3480156102e857600080fd5b5061021e6102f73660046111ce565b610bcb565b34801561030857600080fd5b50610311610c73565b604051610247919061128b565b34801561032a57600080fd5b5061028460055481565b34801561034057600080fd5b506102af61034f3660046112a5565b8051602081830181018051600a8252928201919093012091525460ff1681565b34801561037b57600080fd5b5061028460075481565b34801561039157600080fd5b5061021e6103a03660046112a5565b610d01565b3480156103b157600080fd5b50610284610e02565b3480156103c657600080fd5b50610311610e32565b3480156103db57600080fd5b5061028460025481565b3480156103f157600080fd5b5061021e6104003660046112a5565b610e3f565b34801561041157600080fd5b50610311610ee8565b34801561042657600080fd5b506102847f000000000000000000000000000000000000000000000000000000000000000081565b34801561045a57600080fd5b506104827f000000000000000000000000000000000000000000000000000000000000000081565b6040516001600160a01b039091168152602001610247565b3480156104a657600080fd5b506104827f000000000000000000000000000000000000000000000000000000000000000081565b3480156104da57600080fd5b506104e3610ef5565b60408051938452602084019290925290820152606001610247565b34801561050a57600080fd5b5061028460065481565b34801561052057600080fd5b5061021e61052f3660046111ce565b610f0e565b34801561054057600080fd5b506104827f000000000000000000000000000000000000000000000000000000000000000081565b336001600160a01b037f000000000000000000000000000000000000000000000000000000000000000016146105b157604051633a35ee7f60e11b815260040160405180910390fd5b6003805460ff191660029081179091556040517fa6dcc92f45df25789d5639b7a0c97ba1edf3bb1c0b5dd3376fd96a0db87c4642916105ef9161111d565b60405180910390a1565b336001600160a01b037f0000000000000000000000000000000000000000000000000000000000000000161461064257604051633dc872b560e21b815260040160405180910390fd5b346006600082825461065491906110cc565b90915550506040513481527f1dd3e90908ab276286e45e9c644bc83a859d468f96322af1b09608734b071cdd906020016105ef565b60008060035460ff1660028111156106a3576106a36110e5565b1480156106d157507f0000000000000000000000000000000000000000000000000000000000000000600254105b905090565b6106de61105d565b60008060035460ff1660028111156106f8576106f86110e5565b1461072a5760035460405163098d23bb60e41b815261072191839160ff909116906004016112e2565b60405180910390fd5b33806107495760405163d92e233d60e01b815260040160405180910390fd5b7f00000000000000000000000000000000000000000000000000000000000000006002541061078b576040516304039ccf60e21b815260040160405180910390fd5b7f000000000000000000000000000000000000000000000000000000000000000034146107f35760405163b99e2ab760e01b81523460048201527f00000000000000000000000000000000000000000000000000000000000000006024820152604401610721565b6004805460009182610804836112fd565b9091555060028054919250600061081a836112fd565b9190505550346005600082825461083191906110cc565b909155505060405163743865b360e11b8152336004820152602481018290527f000000000000000000000000000000000000000000000000000000000000000060448201527f00000000000000000000000000000000000000000000000000000000000000006001600160a01b03169063e870cb6690606401600060405180830381600087803b1580156108c457600080fd5b505af11580156108d8573d6000803e3d6000fd5b50506007546040516328874f9d60e11b81526001600160a01b037f000000000000000000000000000000000000000000000000000000000000000016935063510e9f3a925061092b918591600401611316565b600060405180830381600087803b15801561094557600080fd5b505af1158015610959573d6000803e3d6000fd5b50506040518392503391507f0668f5b446eb814fe35b3206f43f14bd8567ba04ddaf7a3ee56516929ab22ccb90600090a37f0000000000000000000000000000000000000000000000000000000000000000600254036109fa576003805460ff191660019081179091556040517fa6dcc92f45df25789d5639b7a0c97ba1edf3bb1c0b5dd3376fd96a0db87c4642916109f19161111d565b60405180910390a15b505050610a076001600055565b565b336001600160a01b037f00000000000000000000000000000000000000000000000000000000000000001614610a5257604051633a35ee7f60e11b815260040160405180910390fd5b610a5a61105d565b6005546006546000610a6c82846110cc565b905080600003610a8f57604051630686827b60e51b815260040160405180910390fd5b6000600581905560068190556040517f00000000000000000000000000000000000000000000000000000000000000006001600160a01b03169083908381818185875af1925050503d8060008114610b03576040519150601f19603f3d011682016040523d82523d6000602084013e610b08565b606091505b5050905080610b595760405162461bcd60e51b815260206004820152601b60248201527f4576656e743a2046756e64207472616e73666572206661696c656400000000006044820152606401610721565b60408051858152602081018590526001600160a01b037f000000000000000000000000000000000000000000000000000000000000000016917ffbc3a599b784fe88772fc5abcc07223f64ca0b13acc341f4fb1e46bef0510eb4910160405180910390a250505050610a076001600055565b336001600160a01b037f00000000000000000000000000000000000000000000000000000000000000001614610c1457604051633a35ee7f60e11b815260040160405180910390fd5b60078390556008610c258382611416565b506009610c328282611416565b507fcee72cbaabfd97dfdf7dc2b53a8a3d7ac721d88cd0391016e4140fc478243771838383604051610c66939291906114d6565b60405180910390a1505050565b60088054610c809061138d565b80601f0160208091040260200160405190810160405280929190818152602001828054610cac9061138d565b8015610cf95780601f10610cce57610100808354040283529160200191610cf9565b820191906000526020600020905b815481529060010190602001808311610cdc57829003601f168201915b505050505081565b336001600160a01b037f00000000000000000000000000000000000000000000000000000000000000001614610d4a57604051633a35ee7f60e11b815260040160405180910390fd5b6040516355f804b360e01b81526001600160a01b037f000000000000000000000000000000000000000000000000000000000000000016906355f804b390610d9690849060040161128b565b600060405180830381600087803b158015610db057600080fd5b505af1158015610dc4573d6000803e3d6000fd5b505050507ff9c7803e94e0d3c02900d8a90893a6d5e90dd04d32a4cfe825520f82bf9f32f681604051610df7919061128b565b60405180910390a150565b60006002547f00000000000000000000000000000000000000000000000000000000000000006106d1919061150b565b60018054610c809061138d565b336001600160a01b037f00000000000000000000000000000000000000000000000000000000000000001614610e8857604051633a35ee7f60e11b815260040160405180910390fd5b6001600a82604051610e9a919061151e565b908152604051908190036020018120805492151560ff19909316929092179091557f1b2c9a62ca3ec5e6daf5f15c89984ca8935bf85501d5bf7c7e4aa4b5638a50ad90610df790839061128b565b60098054610c809061138d565b6005546006546000610f0782846110cc565b9050909192565b336001600160a01b037f00000000000000000000000000000000000000000000000000000000000000001614610f5757604051633a35ee7f60e11b815260040160405180910390fd5b600a81604051610f67919061151e565b9081526040519081900360200190205460ff16610f995780604051630d4086f560e31b8152600401610721919061128b565b6007546040516328874f9d60e11b81526001600160a01b037f0000000000000000000000000000000000000000000000000000000000000000169163510e9f3a91610fec9187918791879160040161153a565b600060405180830381600087803b15801561100657600080fd5b505af115801561101a573d6000803e3d6000fd5b50505050827fc329de8ecf8a343cb65204fb420f17a4375c7b8840241e14c2eb073747e354708383604051611050929190611577565b60405180910390a2505050565b6002600054036110af5760405162461bcd60e51b815260206004820152601f60248201527f5265656e7472616e637947756172643a207265656e7472616e742063616c6c006044820152606401610721565b6002600055565b634e487b7160e01b600052601160045260246000fd5b808201808211156110df576110df6110b6565b92915050565b634e487b7160e01b600052602160045260246000fd5b6003811061111957634e487b7160e01b600052602160045260246000fd5b9052565b602081016110df82846110fb565b634e487b7160e01b600052604160045260246000fd5b600082601f83011261115257600080fd5b813567ffffffffffffffff8082111561116d5761116d61112b565b604051601f8301601f19908116603f011681019082821181831017156111955761119561112b565b816040528381528660208588010111156111ae57600080fd5b836020870160208301376000602085830101528094505050505092915050565b6000806000606084860312156111e357600080fd5b83359250602084013567ffffffffffffffff8082111561120257600080fd5b61120e87838801611141565b9350604086013591508082111561122457600080fd5b5061123186828701611141565b9150509250925092565b60005b8381101561125657818101518382015260200161123e565b50506000910152565b6000815180845261127781602086016020860161123b565b601f01601f19169290920160200192915050565b60208152600061129e602083018461125f565b9392505050565b6000602082840312156112b757600080fd5b813567ffffffffffffffff8111156112ce57600080fd5b6112da84828501611141565b949350505050565b604081016112f082856110fb565b61129e60208301846110fb565b60006001820161130f5761130f6110b6565b5060010190565b82815260806020820152600061134d60808301601181527023b2b732b930b61020b236b4b9b9b4b7b760791b602082015260400190565b828103604084015261137d81601181527023b2b732b930b61020b236b4b9b9b4b7b760791b602082015260400190565b9150508260608301529392505050565b600181811c908216806113a157607f821691505b6020821081036113c157634e487b7160e01b600052602260045260246000fd5b50919050565b601f82111561141157600081815260208120601f850160051c810160208610156113ee5750805b601f850160051c820191505b8181101561140d578281556001016113fa565b5050505b505050565b815167ffffffffffffffff8111156114305761143061112b565b6114448161143e845461138d565b846113c7565b602080601f83116001811461147957600084156114615750858301515b600019600386901b1c1916600185901b17855561140d565b600085815260208120601f198616915b828110156114a857888601518255948401946001909101908401611489565b50858210156114c65787850151600019600388901b60f8161c191681555b5050505050600190811b01905550565b8381526060602082015260006114ef606083018561125f565b8281036040840152611501818561125f565b9695505050505050565b818103818111156110df576110df6110b6565b6000825161153081846020870161123b565b9190910192915050565b848152608060208201526000611553608083018661125f565b8281036040840152611565818661125f565b91505082606083015295945050505050565b60408152600061158a604083018561125f565b828103602084015261159c818561125f565b9594505050505056fea264697066735822122050a28efc8b7e80d5d460202aa58c4c23e14a33947bcf80cbe852eb6206f1183a64736f6c6343000814003368747470733a2f2f6170692e7469636b6574696e672e6578616d706c652f6d657461646174612f",
  "linkReferences": {},
  "deployedLinkReferences": {}
}