{
  "_format": "hh-sol-artifact-1",
  "contractName": "TicketNFT",
  "sourceName": "contracts/TicketNFT.sol",
  "abi": [
    {
      "inputs": [
        {
          "internalType": "string",
          "name": "_name",
          "type": "string"
        },
        {
          "internalType": "string",
          "name": "_symbol",
          "type": "string"
        },
        {
          "internalType": "uint256",
          "name": "_resaleLimitMultiplier",
          "type": "uint256"
        },
        {
          "internalType": "uint256",
          "name": "_venueFeePercentage",
          "type": "uint256"
        }
      ],
      "stateMutability": "nonpayable",
      "type": "constructor"
    },
    {
      "inputs": [],
      "name": "AlreadyInitialized",
      "type": "error"
    },
    {
      "inputs": [],
      "name": "NotEventContract",
      "type": "error"
    },
    {
      "inputs": [],
      "name": "NotForSale",
      "type": "error"
    },
    {
      "inputs": [],
      "name": "NotTicketOwner",
      "type": "error"
    },
    {
      "inputs": [
        {
          "internalType": "uint256",
          "name": "required",
          "type": "uint256"
        },
        {
          "internalType": "uint256",
          "name": "provided",
          "type": "uint256"
        }
      ],
      "name": "PriceNotMet",
      "type": "error"
    },
    {
      "inputs": [
        {
          "internalType": "uint256",
          "name": "tokenId",
          "type": "uint256"
        },
        {
          "internalType": "uint256",
          "name": "askingPrice",
          "type": "uint256"
        },
        {
          "internalType": "uint256",
          "name": "maxPrice",
          "type": "uint256"
        }
      ],
      "name": "ResalePriceTooHigh",
      "type": "error"
    },
    {
      "inputs": [
        {
          "internalType": "string",
          "name": "reason",
          "type": "string"
        }
      ],
      "name": "TransferDisabled",
      "type": "error"
    },
    {
      "inputs": [],
      "name": "ZeroAddress",
      "type": "error"
    },
    {
      "anonymous": false,
      "inputs": [
        {
          "indexed": true,
          "internalType": "address",
          "name": "owner",
          "type": "address"
        },
        {
          "indexed": true,
          "internalType": "address",
          "name": "approved",
          "type": "address"
        },
        {
          "indexed": true,
          "internalType": "uint256",
          "name": "tokenId",
          "type": "uint256"
        }
      ],
      "name": "Approval",
      "type": "event"
    },
    {
      "anonymous": false,
      "inputs": [
        {
          "indexed": true,
          "internalType": "address",
          "name": "owner",
          "type": "address"
        },
        {
          "indexed": true,
          "internalType": "address",
          "name": "operator",
          "type": "address"
        },
        {
          "indexed": false,
          "internalType": "bool",
          "name": "approved",
          "type": "bool"
        }
      ],
      "name": "ApprovalForAll",
      "type": "event"
    },
    {
      "anonymous": false,
      "inputs": [
        {
          "indexed": false,
          "internalType": "string",
          "name": "newBaseURI",
          "type": "string"
        }
      ],
      "name": "BaseURIUpdated",
      "type": "event"
    },
    {
      "anonymous": false,
      "inputs": [
        {
          "indexed": true,
          "internalType": "uint256",
          "name": "tokenId",
          "type": "uint256"
        }
      ],
      "name": "ListingCancelled",
      "type": "event"
    },
    {
      "anonymous": false,
      "inputs": [
        {
          "indexed": true,
          "internalType": "uint256",
          "name": "tokenId",
          "type": "uint256"
        },
        {
          "indexed": false,
          "internalType": "uint256",
          "name": "price",
          "type": "uint256"
        },
        {
          "indexed": true,
          "internalType": "address",
          "name": "seller",
          "type": "address"
        }
      ],
      "name": "TicketListed",
      "type": "event"
    },
    {
      "anonymous": false,
      "inputs": [
        {
          "indexed": true,
          "internalType": "uint256",
          "name": "tokenId",
          "type": "uint256"
        },
        {
          "indexed": false,
          "internalType": "string",
          "name": "seatInfo",
          "type": "string"
        },
        {
          "indexed": false,
          "internalType": "string",
          "name": "ticketType",
          "type": "string"
        }
      ],
      "name": "TicketMetadataSet",
      "type": "event"
    },
    {
      "anonymous": false,
      "inputs": [
        {
          "indexed": true,
          "internalType": "uint256",
          "name": "tokenId",
          "type": "uint256"
        },
        {
          "indexed": false,
          "internalType": "uint256",
          "name": "price",
          "type": "uint256"
        },
        {
          "indexed": true,
          "internalType": "address",
          "name": "seller",
          "type": "address"
        },
        {
          "indexed": true,
          "internalType": "address",
          "name": "buyer",
          "type": "address"
        }
      ],
      "name": "TicketSold",
      "type": "event"
    },
    {
      "anonymous": false,
      "inputs": [
        {
          "indexed": true,
          "internalType": "address",
          "name": "from",
          "type": "address"
        },
        {
          "indexed": true,
          "internalType": "address",
          "name": "to",
          "type": "address"
        },
        {
          "indexed": true,
          "internalType": "uint256",
          "name": "tokenId",
          "type": "uint256"
        }
      ],
      "name": "Transfer",
      "type": "event"
    },
    {
      "inputs": [],
      "name": "BASIS_POINTS",
      "outputs": [
        {
          "internalType": "uint256",
          "name": "",
          "type": "uint256"
        }
      ],
      "stateMutability": "view",
      "type": "function"
    },
    {
      "inputs": [
        {
          "internalType": "address",
          "name": "to",
          "type": "address"
        },
        {
          "internalType": "uint256",
          "name": "tokenId",
          "type": "uint256"
        }
      ],
      "name": "approve",
      "outputs": [],
      "stateMutability": "nonpayable",
      "type": "function"
    },
    {
      "inputs": [
        {
          "internalType": "address",
          "name": "owner",
          "type": "address"
        }
      ],
      "name": "balanceOf",
      "outputs": [
        {
          "internalType": "uint256",
          "name": "",
          "type": "uint256"
        }
      ],
      "stateMutability": "view",
      "type": "function"
    },
    {
      "inputs": [
        {
          "internalType": "uint256",
          "name": "tokenId",
          "type": "uint256"
        }
      ],
      "name": "cancelListing",
      "outputs": [],
      "stateMutability": "nonpayable",
      "type": "function"
    },
    {
      "inputs": [],
      "name": "eventContract",
      "outputs": [
        {
          "internalType": "address",
          "name": "",
          "type": "address"
        }
      ],
      "stateMutability": "view",
      "type": "function"
    },
    {
      "inputs": [
        {
          "internalType": "uint256",
          "name": "tokenId",
          "type": "uint256"
        }
      ],
      "name": "getApproved",
      "outputs": [
        {
          "internalType": "address",
          "name": "",
          "type": "address"
        }
      ],
      "stateMutability": "view",
      "type": "function"
    },
    {
      "inputs": [
        {
          "internalType": "uint256",
          "name": "tokenId",
          "type": "uint256"
        }
      ],
      "name": "getMaxResalePrice",
      "outputs": [
        {
          "internalType": "uint256",
          "name": "",
          "type": "uint256"
        }
      ],
      "stateMutability": "view",
      "type": "function"
    },
    {
      "inputs": [
        {
          "internalType": "uint256",
          "name": "tokenId",
          "type": "uint256"
        }
      ],
      "name": "getTicketMetadata",
      "outputs": [
        {
          "internalType": "string",
          "name": "seatInfo",
          "type": "string"
        },
        {
          "internalType": "string",
          "name": "ticketType",
          "type": "string"
        },
        {
          "internalType": "uint256",
          "name": "eventDate",
          "type": "uint256"
        }
      ],
      "stateMutability": "view",
      "type": "function"
    },
    {
      "inputs": [],
      "name": "initializeEventContract",
      "outputs": [],
      "stateMutability": "nonpayable",
      "type": "function"
    },
    {
      "inputs": [
        {
          "internalType": "address",
          "name": "owner",
          "type": "address"
        },
        {
          "internalType": "address",
          "name": "operator",
          "type": "address"
        }
      ],
      "name": "isApprovedForAll",
      "outputs": [
        {
          "internalType": "bool",
          "name": "",
          "type": "bool"
        }
      ],
      "stateMutability": "view",
      "type": "function"
    },
    {
      "inputs": [
        {
          "internalType": "uint256",
          "name": "tokenId",
          "type": "uint256"
        },
        {
          "internalType": "uint256",
          "name": "askingPrice",
          "type": "uint256"
        }
      ],
      "name": "listTicketForSale",
      "outputs": [],
      "stateMutability": "nonpayable",
      "type": "function"
    },
    {
      "inputs": [
        {
          "internalType": "uint256",
          "name": "",
          "type": "uint256"
        }
      ],
      "name": "marketItems",
      "outputs": [
        {
          "internalType": "bool",
          "name": "isForSale",
          "type": "bool"
        },
        {
          "internalType": "uint256",
          "name": "askingPrice",
          "type": "uint256"
        },
        {
          "internalType": "address",
          "name": "seller",
          "type": "address"
        }
      ],
      "stateMutability": "view",
      "type": "function"
    },
    {
      "inputs": [
        {
          "internalType": "address",
          "name": "to",
          "type": "address"
        },
        {
          "internalType": "uint256",
          "name": "tokenId",
          "type": "uint256"
        },
        {
          "internalType": "uint256",
          "name": "_purchasePrice",
          "type": "uint256"
        }
      ],
      "name": "mintTicket",
      "outputs": [],
      "stateMutability": "nonpayable",
      "type": "function"
    },
    {
      "inputs": [],
      "name": "name",
      "outputs": [
        {
          "internalType": "string",
          "name": "",
          "type": "string"
        }
      ],
      "stateMutability": "view",
      "type": "function"
    },
    {
      "inputs": [
        {
          "internalType": "uint256",
          "name": "",
          "type": "uint256"
        }
      ],
      "name": "originalPrice",
      "outputs": [
        {
          "internalType": "uint256",
          "name": "",
          "type": "uint256"
        }
      ],
      "stateMutability": "view",
      "type": "function"
    },
    {
      "inputs": [
        {
          "internalType": "uint256",
          "name": "tokenId",
          "type": "uint256"
        }
      ],
      "name": "ownerOf",
      "outputs": [
        {
          "internalType": "address",
          "name": "",
          "type": "address"
        }
      ],
      "stateMutability": "view",
      "type": "function"
    },
    {
      "inputs": [
        {
          "internalType": "uint256",
          "name": "tokenId",
          "type": "uint256"
        }
      ],
      "name": "purchaseTicket",
      "outputs": [],
      "stateMutability": "payable",
      "type": "function"
    },
    {
      "inputs": [],
      "name": "resaleLimitMultiplier",
      "outputs": [
        {
          "internalType": "uint256",
          "name": "",
          "type": "uint256"
        }
      ],
      "stateMutability": "view",
      "type": "function"
    },
    {
      "inputs": [
        {
          "internalType": "address",
          "name": "from",
          "type": "address"
        },
        {
          "internalType": "address",
          "name": "to",
          "type": "address"
        },
        {
          "internalType": "uint256",
          "name": "tokenId",
          "type": "uint256"
        }
      ],
      "name": "safeTransferFrom",
      "outputs": [],
      "stateMutability": "nonpayable",
      "type": "function"
    },
    {
      "inputs": [
        {
          "internalType": "address",
          "name": "from",
          "type": "address"
        },
        {
          "internalType": "address",
          "name": "to",
          "type": "address"
        },
        {
          "internalType": "uint256",
          "name": "tokenId",
          "type": "uint256"
        },
        {
          "internalType": "bytes",
          "name": "data",
          "type": "bytes"
        }
      ],
      "name": "safeTransferFrom",
      "outputs": [],
      "stateMutability": "nonpayable",
      "type": "function"
    },
    {
      "inputs": [
        {
          "internalType": "address",
          "name": "operator",
          "type": "address"
        },
        {
          "internalType": "bool",
          "name": "approved",
          "type": "bool"
        }
      ],
      "name": "setApprovalForAll",
      "outputs": [],
      "stateMutability": "nonpayable",
      "type": "function"
    },
    {
      "inputs": [
        {
          "internalType": "string",
          "name": "_newBaseURI",
          "type": "string"
        }
      ],
      "name": "setBaseURI",
      "outputs": [],
      "stateMutability": "nonpayable",
      "type": "function"
    },
    {
      "inputs": [
        {
          "internalType": "uint256",
          "name": "tokenId",
          "type": "uint256"
        },
        {
          "internalType": "string",
          "name": "seatInfo",
          "type": "string"
        },
        {
          "internalType": "string",
          "name": "ticketType",
          "type": "string"
        },
        {
          "internalType": "uint256",
          "name": "eventDate",
          "type": "uint256"
        }
      ],
      "name": "setTicketMetadata",
      "outputs": [],
      "stateMutability": "nonpayable",
      "type": "function"
    },
    {
      "inputs": [
        {
          "internalType": "bytes4",
          "name": "interfaceId",
          "type": "bytes4"
        }
      ],
      "name": "supportsInterface",
      "outputs": [
        {
          "internalType": "bool",
          "name": "",
          "type": "bool"
        }
      ],
      "stateMutability": "view",
      "type": "function"
    },
    {
      "inputs": [],
      "name": "symbol",
      "outputs": [
        {
          "internalType": "string",
          "name": "",
          "type": "string"
        }
      ],
      "stateMutability": "view",
      "type": "function"
    },
    {
      "inputs": [
        {
          "internalType": "uint256",
          "name": "index",
          "type": "uint256"
        }
      ],
      "name": "tokenByIndex",
      "outputs": [
        {
          "internalType": "uint256",
          "name": "",
          "type": "uint256"
        }
      ],
      "stateMutability": "view",
      "type": "function"
    },
    {
      "inputs": [
        {
          "internalType": "address",
          "name": "owner",
          "type": "address"
        },
        {
          "internalType": "uint256",
          "name": "index",
          "type": "uint256"
        }
      ],
      "name": "tokenOfOwnerByIndex",
      "outputs": [
        {
          "internalType": "uint256",
          "name": "",
          "type": "uint256"
        }
      ],
      "stateMutability": "view",
      "type": "function"
    },
    {
      "inputs": [
        {
          "internalType": "uint256",
          "name": "tokenId",
          "type": "uint256"
        }
      ],
      "name": "tokenURI",
      "outputs": [
        {
          "internalType": "string",
          "name": "",
          "type": "string"
        }
      ],
      "stateMutability": "view",
      "type": "function"
    },
    {
      "inputs": [],
      "name": "totalSupply",
      "outputs": [
        {
          "internalType": "uint256",
          "name": "",
          "type": "uint256"
        }
      ],
      "stateMutability": "view",
      "type": "function"
    },
    {
      "inputs": [
        {
          "internalType": "address",
          "name": "from",
          "type": "address"
        },
        {
          "internalType": "address",
          "name": "to",
          "type": "address"
        },
        {
          "internalType": "uint256",
          "name": "tokenId",
          "type": "uint256"
        }
      ],
      "name": "transferFrom",
      "outputs": [],
      "stateMutability": "nonpayable",
      "type": "function"
    },
    {
      "inputs": [],
      "name": "venueFeePercentage",
      "outputs": [
        {
          "internalType": "uint256",
          "name": "",
          "type": "uint256"
        }
      ],
      "stateMutability": "view",
      "type": "function"
    }
  ],
  "bytecode": "0x60c06040523480156200001157600080fd5b5060405162002e3a38038062002e3a8339810160408190526200003491620001ed565b83836000620000448382620002f6565b506001620000538282620002f6565b50506001600a55506064821015620000c25760405162461bcd60e51b815260206004820152602760248201527f5469636b65744e46543a20526573616c65206c696d6974206d757374206265206044820152663e3d203130302560c81b60648201526084015b60405180910390fd5b610bb8811115620001165760405162461bcd60e51b815260206004820152601d60248201527f5469636b65744e46543a2056656e75652066656520746f6f20686967680000006044820152606401620000b9565b60809190915260a05250620003c29050565b634e487b7160e01b600052604160045260246000fd5b600082601f8301126200015057600080fd5b81516001600160401b03808211156200016d576200016d62000128565b604051601f8301601f19908116603f0116810190828211818310171562000198576200019862000128565b81604052838152602092508683858801011115620001b557600080fd5b600091505b83821015620001d95785820183015181830184015290820190620001ba565b600093810190920192909252949350505050565b600080600080608085870312156200020457600080fd5b84516001600160401b03808211156200021c57600080fd5b6200022a888389016200013e565b955060208701519150808211156200024157600080fd5b5062000250878288016200013e565b604087015160609097015195989097509350505050565b600181811c908216806200027c57607f821691505b6020821081036200029d57634e487b7160e01b600052602260045260246000fd5b50919050565b601f821115620002f157600081815260208120601f850160051c81016020861015620002cc5750805b601f850160051c820191505b81811015620002ed57828155600101620002d8565b5050505b505050565b81516001600160401b0381111562000312576200031262000128565b6200032a8162000323845462000267565b84620002a3565b602080601f831160018114620003625760008415620003495750858301515b600019600386901b1c1916600185901b178555620002ed565b600085815260208120601f198616915b82811015620003935788860151825594840194600190910190840162000372565b5085821015620003b25787850151600019600388901b60f8161c191681555b5050505050600190811b01905550565b60805160a051612a3d620003fd6000396000818161058b0152610e7901526000818161065e015281816106a901526114460152612a3d6000f3fe6080604052600436106101d85760003560e01c80636352211e11610102578063c87b56dd11610095578063e274fd2411610064578063e274fd24146105c3578063e870cb66146105e3578063e985e9c514610603578063efff90821461064c57600080fd5b8063c87b56dd14610539578063d524d32d14610559578063da190ced14610579578063e1f1c4a7146105ad57600080fd5b8063a22cb465116100d1578063a22cb465146104b7578063b88d4fde146104d7578063b948348c146104f7578063ba0ae43c1461050a57600080fd5b80636352211e1461044d5780636952396d1461046d57806370a082311461048257806395d89b41146104a257600080fd5b80632f745c591161017a578063510e9f3a11610149578063510e9f3a1461037157806351f28e141461039157806355f804b314610400578063588dac681461042057600080fd5b80632f745c59146102f1578063305a67a81461031157806342842e0e146103315780634f6ccce71461035157600080fd5b8063081812fc116101b6578063081812fc14610262578063095ea7b31461029a57806318160ddd146102bc57806323b872dd146102d157600080fd5b806301ffc9a7146101dd57806305aaff311461021257806306fdde0314610240575b600080fd5b3480156101e957600080fd5b506101fd6101f83660046121c1565b610680565b60405190151581526020015b60405180910390f35b34801561021e57600080fd5b5061023261022d3660046121e5565b610691565b604051908152602001610209565b34801561024c57600080fd5b506102556106d8565b604051610209919061224e565b34801561026e57600080fd5b5061028261027d3660046121e5565b61076a565b6040516001600160a01b039091168152602001610209565b3480156102a657600080fd5b506102ba6102b536600461227d565b610791565b005b3480156102c857600080fd5b50600854610232565b3480156102dd57600080fd5b506102ba6102ec3660046122a7565b6108ab565b3480156102fd57600080fd5b5061023261030c36600461227d565b6108dc565b34801561031d57600080fd5b506102ba61032c3660046121e5565b610972565b34801561033d57600080fd5b506102ba61034c3660046122a7565b610a2c565b34801561035d57600080fd5b5061023261036c3660046121e5565b610a47565b34801561037d57600080fd5b506102ba61038c36600461238f565b610ada565b34801561039d57600080fd5b506103da6103ac3660046121e5565b600d6020526000908152604090208054600182015460029092015460ff90911691906001600160a01b031683565b60408051931515845260208401929092526001600160a01b031690820152606001610209565b34801561040c57600080fd5b506102ba61041b366004612404565b610b9f565b34801561042c57600080fd5b5061023261043b3660046121e5565b600c6020526000908152604090205481565b34801561045957600080fd5b506102826104683660046121e5565b610c11565b34801561047957600080fd5b506102ba610c71565b34801561048e57600080fd5b5061023261049d366004612439565b610cdc565b3480156104ae57600080fd5b50610255610d62565b3480156104c357600080fd5b506102ba6104d2366004612454565b610d71565b3480156104e357600080fd5b506102ba6104f2366004612490565b610d80565b6102ba6105053660046121e5565b610db8565b34801561051657600080fd5b5061052a6105253660046121e5565b611145565b6040516102099392919061250c565b34801561054557600080fd5b506102556105543660046121e5565b611326565b34801561056557600080fd5b506102ba610574366004612542565b6113fc565b34801561058557600080fd5b506102327f000000000000000000000000000000000000000000000000000000000000000081565b3480156105b957600080fd5b5061023261271081565b3480156105cf57600080fd5b50600b54610282906001600160a01b031681565b3480156105ef57600080fd5b506102ba6105fe366004612564565b611550565b34801561060f57600080fd5b506101fd61061e366004612597565b6001600160a01b03918216600090815260056020908152604080832093909416825291909152205460ff1690565b34801561065857600080fd5b506102327f000000000000000000000000000000000000000000000000000000000000000081565b600061068b82611598565b92915050565b6000818152600c60205260408120546064906106ce907f0000000000000000000000000000000000000000000000000000000000000000906125e0565b61068b919061260d565b6060600080546106e790612621565b80601f016020809104026020016040519081016040528092919081815260200182805461071390612621565b80156107605780601f1061073557610100808354040283529160200191610760565b820191906000526020600020905b81548152906001019060200180831161074357829003601f168201915b5050505050905090565b6000610775826115bd565b506000908152600460205260409020546001600160a01b031690565b600061079c82610c11565b9050806001600160a01b0316836001600160a01b03160361080e5760405162461bcd60e51b815260206004820152602160248201527f4552433732313a20617070726f76616c20746f2063757272656e74206f776e656044820152603960f91b60648201526084015b60405180910390fd5b336001600160a01b038216148061082a575061082a813361061e565b61089c5760405162461bcd60e51b815260206004820152603d60248201527f4552433732313a20617070726f76652063616c6c6572206973206e6f7420746f60448201527f6b656e206f776e6572206f7220617070726f76656420666f7220616c6c0000006064820152608401610805565b6108a6838361161c565b505050565b6108b5338261168a565b6108d15760405162461bcd60e51b81526004016108059061265b565b6108a6838383611709565b60006108e783610cdc565b82106109495760405162461bcd60e51b815260206004820152602b60248201527f455243373231456e756d657261626c653a206f776e657220696e646578206f7560448201526a74206f6620626f756e647360a81b6064820152608401610805565b506001600160a01b03919091166000908152600660209081526040808320938352929052205490565b803361097d82610c11565b6001600160a01b0316146109a45760405163e18d39ad60e01b815260040160405180910390fd5b6000828152600d602052604090205460ff166109d357604051631d99ddbf60e01b815260040160405180910390fd5b6000828152600d6020526040808220805460ff191681556001810183905560020180546001600160a01b03191690555183917f411aee90354c51b1b04cd563fcab2617142a9d50da19232d888547c8a1b7fd8a91a25050565b6108a683838360405180602001604052806000815250610d80565b6000610a5260085490565b8210610ab55760405162461bcd60e51b815260206004820152602c60248201527f455243373231456e756d657261626c653a20676c6f62616c20696e646578206f60448201526b7574206f6620626f756e647360a01b6064820152608401610805565b60088281548110610ac857610ac86126a8565b90600052602060002001549050919050565b600b546001600160a01b03163314610b0557604051630246f7d360e31b815260040160405180910390fd5b6040805160608101825284815260208082018590528183018490526000878152600f9091529190912081518190610b3c908261270c565b5060208201516001820190610b51908261270c565b5060408201518160020155905050837fc329de8ecf8a343cb65204fb420f17a4375c7b8840241e14c2eb073747e354708484604051610b919291906127cc565b60405180910390a250505050565b600b546001600160a01b03163314610bca57604051630246f7d360e31b815260040160405180910390fd5b600e610bd6828261270c565b507f6741b2fc379fad678116fe3d4d4b9a1a184ab53ba36b86ad0fa66340b1ab41ad81604051610c06919061224e565b60405180910390a150565b6000818152600260205260408120546001600160a01b03168061068b5760405162461bcd60e51b8152602060048201526018602482015277115490cdcc8c4e881a5b9d985b1a59081d1bdad95b88125160421b6044820152606401610805565b600b54600160a01b900460ff1615610c9b5760405162dc149f60e41b815260040160405180910390fd5b33610cb95760405163d92e233d60e01b815260040160405180910390fd5b600b805460ff60a01b1933166001600160a81b031990911617600160a01b179055565b60006001600160a01b038216610d465760405162461bcd60e51b815260206004820152602960248201527f4552433732313a2061646472657373207a65726f206973206e6f7420612076616044820152683634b21037bbb732b960b91b6064820152608401610805565b506001600160a01b031660009081526003602052604090205490565b6060600180546106e790612621565b610d7c33838361187a565b5050565b610d8a338361168a565b610da65760405162461bcd60e51b81526004016108059061265b565b610db284848484611948565b50505050565b610dc061197b565b6000818152600d60205260409020805460ff16610df057604051631d99ddbf60e01b815260040160405180910390fd5b8060010154341015610e2457600181015460405163bc03bccd60e01b81526004810191909152346024820152604401610805565b6002808201546001808401546000868152600d60205260408120805460ff1916815592830155920180546001600160a01b03191690556001600160a01b031690610e6f823386611709565b6000612710610e9e7f0000000000000000000000000000000000000000000000000000000000000000846125e0565b610ea8919061260d565b90506000610eb682846127fa565b90506000846001600160a01b03168260405160006040518083038185875af1925050503d8060008114610f05576040519150601f19603f3d011682016040523d82523d6000602084013e610f0a565b606091505b5050905080610f5b5760405162461bcd60e51b815260206004820152601e60248201527f53656c6c6572207061796d656e74207472616e73666572206661696c656400006044820152606401610805565b821561103c57600b5460408051600481526024810182526020810180516001600160e01b03166313455aff60e01b17905290516000926001600160a01b0316918691610fa7919061280d565b60006040518083038185875af1925050503d8060008114610fe4576040519150601f19603f3d011682016040523d82523d6000602084013e610fe9565b606091505b505090508061103a5760405162461bcd60e51b815260206004820152601960248201527f56656e756520666565207472616e73666572206661696c6564000000000000006044820152606401610805565b505b600061104885346127fa565b905080156110e357604051600090339083908381818185875af1925050503d8060008114611092576040519150601f19603f3d011682016040523d82523d6000602084013e611097565b606091505b50509050806110e15760405162461bcd60e51b81526020600482015260166024820152751499599d5b99081d1c985b9cd9995c8819985a5b195960521b6044820152606401610805565b505b336001600160a01b0316866001600160a01b0316897f44f19a44b8c509adc281ec35927694f6d25e501d0de1764890ab0637b8dcda488860405161112991815260200190565b60405180910390a4505050505050506111426001600a55565b50565b60008181526002602052604081205460609182916001600160a01b03166111c65760405162461bcd60e51b815260206004820152602f60248201527f5469636b65744e46543a204d6574616461746120717565727920666f72206e6f60448201526e3732bc34b9ba32b73a103a37b5b2b760891b6064820152608401610805565b6000848152600f60205260408082208151606081019092528054829082906111ed90612621565b80601f016020809104026020016040519081016040528092919081815260200182805461121990612621565b80156112665780601f1061123b57610100808354040283529160200191611266565b820191906000526020600020905b81548152906001019060200180831161124957829003601f168201915b5050505050815260200160018201805461127f90612621565b80601f01602080910402602001604051908101604052809291908181526020018280546112ab90612621565b80156112f85780601f106112cd576101008083540402835291602001916112f8565b820191906000526020600020905b8154815290600101906020018083116112db57829003601f168201915b5050509183525050600291909101546020918201528151908201516040909201519097919650945092505050565b6000818152600260205260409020546060906001600160a01b03166113a05760405162461bcd60e51b815260206004820152602a60248201527f5469636b65744e46543a2055524920717565727920666f72206e6f6e657869736044820152693a32b73a103a37b5b2b760b11b6064820152608401610805565b6000600e80546113af90612621565b9050116113cb576040518060200160405280600081525061068b565b600e6113d6836119d4565b6040516020016113e7929190612829565b60405160208183030381529060405292915050565b813361140782610c11565b6001600160a01b03161461142e5760405163e18d39ad60e01b815260040160405180910390fd5b6000838152600c602052604081205460649061146b907f0000000000000000000000000000000000000000000000000000000000000000906125e0565b611475919061260d565b9050808311156114a95760405163059b41a360e01b8152600481018590526024810184905260448101829052606401610805565b6114b33085610791565b60408051606081018252600180825260208083018781523384860181815260008b8152600d85528790209551865460ff191690151517865591519385019390935551600290930180546001600160a01b0319166001600160a01b0390941693909317909255915185815286917f5ddeb20641397a4006800e63273f4f75df6e6964e4456220df00032d3d160da7910160405180910390a350505050565b600b546001600160a01b0316331461157b57604051630246f7d360e31b815260040160405180910390fd5b6115858383611ad5565b6000918252600c60205260409091205550565b60006001600160e01b0319821663780e9d6360e01b148061068b575061068b82611aef565b6000818152600260205260409020546001600160a01b03166111425760405162461bcd60e51b8152602060048201526018602482015277115490cdcc8c4e881a5b9d985b1a59081d1bdad95b88125160421b6044820152606401610805565b600081815260046020526040902080546001600160a01b0319166001600160a01b038416908117909155819061165182610c11565b6001600160a01b03167f8c5be1e5ebec7d5bd14f71427d1e84f3dd0314c0f7b2291e5b200ac8c7c3b92560405160405180910390a45050565b60008061169683610c11565b9050806001600160a01b0316846001600160a01b031614806116dd57506001600160a01b0380821660009081526005602090815260408083209388168352929052205460ff165b806117015750836001600160a01b03166116f68461076a565b6001600160a01b0316145b949350505050565b826001600160a01b031661171c82610c11565b6001600160a01b0316146117425760405162461bcd60e51b8152600401610805906128c0565b6001600160a01b0382166117a45760405162461bcd60e51b8152602060048201526024808201527f4552433732313a207472616e7366657220746f20746865207a65726f206164646044820152637265737360e01b6064820152608401610805565b6117b18383836001611b3f565b826001600160a01b03166117c482610c11565b6001600160a01b0316146117ea5760405162461bcd60e51b8152600401610805906128c0565b600081815260046020908152604080832080546001600160a01b03199081169091556001600160a01b0387811680865260038552838620805460001901905590871680865283862080546001019055868652600290945282852080549092168417909155905184937fddf252ad1be2c89b69c2b068fc378daa952ba7f163c4a11628f55a4df523b3ef91a4505050565b816001600160a01b0316836001600160a01b0316036118db5760405162461bcd60e51b815260206004820152601960248201527f4552433732313a20617070726f766520746f2063616c6c6572000000000000006044820152606401610805565b6001600160a01b03838116600081815260056020908152604080832094871680845294825291829020805460ff191686151590811790915591519182527f17307eab39ab6107e8899845ad3d59bd9653f200f220920489ca2b5937696c31910160405180910390a3505050565b611953848484611709565b61195f84848484611c1a565b610db25760405162461bcd60e51b815260040161080590612905565b6002600a54036119cd5760405162461bcd60e51b815260206004820152601f60248201527f5265656e7472616e637947756172643a207265656e7472616e742063616c6c006044820152606401610805565b6002600a55565b6060816000036119fb5750506040805180820190915260018152600360fc1b602082015290565b8160005b8115611a255780611a0f81612957565b9150611a1e9050600a8361260d565b91506119ff565b60008167ffffffffffffffff811115611a4057611a406122e3565b6040519080825280601f01601f191660200182016040528015611a6a576020820181803683370190505b5090505b841561170157611a7f6001836127fa565b9150611a8c600a86612970565b611a97906030612984565b60f81b818381518110611aac57611aac6126a8565b60200101906001600160f81b031916908160001a905350611ace600a8661260d565b9450611a6e565b610d7c828260405180602001604052806000815250611d1b565b60006001600160e01b031982166380ac58cd60e01b1480611b2057506001600160e01b03198216635b5e139f60e01b145b8061068b57506301ffc9a760e01b6001600160e01b031983161461068b565b6001600160a01b03841615801590611b655750600b546001600160a01b03858116911614155b8015611b7f5750600b546001600160a01b03848116911614155b8015611ba55750611b8f8261076a565b6001600160a01b0316306001600160a01b031614155b15611c0e57604051636f4e31b360e11b815260206004820152603260248201527f4d75737420757365206d61726b6574706c6163652066756e6374696f6e7320746044820152716f207472616e73666572207469636b65747360701b6064820152608401610805565b610db284848484611d4e565b60006001600160a01b0384163b15611d1057604051630a85bd0160e11b81526001600160a01b0385169063150b7a0290611c5e903390899088908890600401612997565b6020604051808303816000875af1925050508015611c99575060408051601f3d908101601f19168201909252611c96918101906129d4565b60015b611cf6573d808015611cc7576040519150601f19603f3d011682016040523d82523d6000602084013e611ccc565b606091505b508051600003611cee5760405162461bcd60e51b815260040161080590612905565b805181602001fd5b6001600160e01b031916630a85bd0160e11b149050611701565b506001949350505050565b611d258383611e82565b611d326000848484611c1a565b6108a65760405162461bcd60e51b815260040161080590612905565b6001811115611dbd5760405162461bcd60e51b815260206004820152603560248201527f455243373231456e756d657261626c653a20636f6e7365637574697665207472604482015274185b9cd9995c9cc81b9bdd081cdd5c1c1bdc9d1959605a1b6064820152608401610805565b816001600160a01b038516611e1957611e1481600880546000838152600960205260408120829055600182018355919091527ff3f7a9fe364faab93b216da50a3214154f22a0a2b415b23a84c8169e8b636ee30155565b611e3c565b836001600160a01b0316856001600160a01b031614611e3c57611e3c858261201b565b6001600160a01b038416611e5857611e53816120b8565b611e7b565b846001600160a01b0316846001600160a01b031614611e7b57611e7b8482612167565b5050505050565b6001600160a01b038216611ed85760405162461bcd60e51b815260206004820181905260248201527f4552433732313a206d696e7420746f20746865207a65726f20616464726573736044820152606401610805565b6000818152600260205260409020546001600160a01b031615611f3d5760405162461bcd60e51b815260206004820152601c60248201527f4552433732313a20746f6b656e20616c7265616479206d696e746564000000006044820152606401610805565b611f4b600083836001611b3f565b6000818152600260205260409020546001600160a01b031615611fb05760405162461bcd60e51b815260206004820152601c60248201527f4552433732313a20746f6b656e20616c7265616479206d696e746564000000006044820152606401610805565b6001600160a01b038216600081815260036020908152604080832080546001019055848352600290915280822080546001600160a01b0319168417905551839291907fddf252ad1be2c89b69c2b068fc378daa952ba7f163c4a11628f55a4df523b3ef908290a45050565b6000600161202884610cdc565b61203291906127fa565b600083815260076020526040902054909150808214612085576001600160a01b03841660009081526006602090815260408083208584528252808320548484528184208190558352600790915290208190555b5060009182526007602090815260408084208490556001600160a01b039094168352600681528383209183525290812055565b6008546000906120ca906001906127fa565b600083815260096020526040812054600880549394509092849081106120f2576120f26126a8565b906000526020600020015490508060088381548110612113576121136126a8565b600091825260208083209091019290925582815260099091526040808220849055858252812055600880548061214b5761214b6129f1565b6001900381819060005260206000200160009055905550505050565b600061217283610cdc565b6001600160a01b039093166000908152600660209081526040808320868452825280832085905593825260079052919091209190915550565b6001600160e01b03198116811461114257600080fd5b6000602082840312156121d357600080fd5b81356121de816121ab565b9392505050565b6000602082840312156121f757600080fd5b5035919050565b60005b83811015612219578181015183820152602001612201565b50506000910152565b6000815180845261223a8160208601602086016121fe565b601f01601f19169290920160200192915050565b6020815260006121de6020830184612222565b80356001600160a01b038116811461227857600080fd5b919050565b6000806040838503121561229057600080fd5b61229983612261565b946020939093013593505050565b6000806000606084860312156122bc57600080fd5b6122c584612261565b92506122d360208501612261565b9150604084013590509250925092565b634e487b7160e01b600052604160045260246000fd5b600067ffffffffffffffff80841115612314576123146122e3565b604051601f8501601f19908116603f0116810190828211818310171561233c5761233c6122e3565b8160405280935085815286868601111561235557600080fd5b858560208301376000602087830101525050509392505050565b600082601f83011261238057600080fd5b6121de838335602085016122f9565b600080600080608085870312156123a557600080fd5b84359350602085013567ffffffffffffffff808211156123c457600080fd5b6123d08883890161236f565b945060408701359150808211156123e657600080fd5b506123f38782880161236f565b949793965093946060013593505050565b60006020828403121561241657600080fd5b813567ffffffffffffffff81111561242d57600080fd5b6117018482850161236f565b60006020828403121561244b57600080fd5b6121de82612261565b6000806040838503121561246757600080fd5b61247083612261565b91506020830135801515811461248557600080fd5b809150509250929050565b600080600080608085870312156124a657600080fd5b6124af85612261565b93506124bd60208601612261565b925060408501359150606085013567ffffffffffffffff8111156124e057600080fd5b8501601f810187136124f157600080fd5b612500878235602084016122f9565b91505092959194509250565b60608152600061251f6060830186612222565b82810360208401526125318186612222565b915050826040830152949350505050565b6000806040838503121561255557600080fd5b50508035926020909101359150565b60008060006060848603121561257957600080fd5b61258284612261565b95602085013595506040909401359392505050565b600080604083850312156125aa57600080fd5b6125b383612261565b91506125c160208401612261565b90509250929050565b634e487b7160e01b600052601160045260246000fd5b808202811582820484141761068b5761068b6125ca565b634e487b7160e01b600052601260045260246000fd5b60008261261c5761261c6125f7565b500490565b600181811c9082168061263557607f821691505b60208210810361265557634e487b7160e01b600052602260045260246000fd5b50919050565b6020808252602d908201527f4552433732313a2063616c6c6572206973206e6f7420746f6b656e206f776e6560408201526c1c881bdc88185c1c1c9bdd9959609a1b606082015260800190565b634e487b7160e01b600052603260045260246000fd5b601f8211156108a657600081815260208120601f850160051c810160208610156126e55750805b601f850160051c820191505b81811015612704578281556001016126f1565b505050505050565b815167ffffffffffffffff811115612726576127266122e3565b61273a816127348454612621565b846126be565b602080601f83116001811461276f57600084156127575750858301515b600019600386901b1c1916600185901b178555612704565b600085815260208120601f198616915b8281101561279e5788860151825594840194600190910190840161277f565b50858210156127bc5787850151600019600388901b60f8161c191681555b5050505050600190811b01905550565b6040815260006127df6040830185612222565b82810360208401526127f18185612222565b95945050505050565b8181038181111561068b5761068b6125ca565b6000825161281f8184602087016121fe565b9190910192915050565b600080845461283781612621565b6001828116801561284f576001811461286457612893565b60ff1984168752821515830287019450612893565b8860005260208060002060005b8581101561288a5781548a820152908401908201612871565b50505082870194505b5050505083516128a78183602088016121fe565b64173539b7b760d91b9101908152600501949350505050565b60208082526025908201527f4552433732313a207472616e736665722066726f6d20696e636f72726563742060408201526437bbb732b960d91b606082015260800190565b60208082526032908201527f4552433732313a207472616e7366657220746f206e6f6e20455243373231526560408201527131b2b4bb32b91034b6b83632b6b2b73a32b960711b606082015260800190565b600060018201612969576129696125ca565b5060010190565b60008261297f5761297f6125f7565b500690565b8082018082111561068b5761068b6125ca565b6001600160a01b03858116825284166020820152604081018390526080606082018190526000906129ca90830184612222565b9695505050505050565b6000602082840312156129e657600080fd5b81516121de816121ab565b634e487b7160e01b600052603160045260246000fdfea26469706673582212209a121c2e475f4c5f64f5e5f0698736e3524680d389bcceea68757cc64daf082764736f6c63430008140033",
  "linkReferences": {},
  "deployedLinkReferences": {}
}